{
  "contractName": "AuditLog",
  "abi": [
    {
      "inputs": [],
      "stateMutability": "nonpayable",
      "type": "constructor"
    },
    {
      "anonymous": false,
      "inputs": [
        {
          "indexed": false,
          "internalType": "string",
          "name": "message",
          "type": "string"
        }
      ],
      "name": "NewLog",
      "type": "event"
    },
    {
      "inputs": [
        {
          "internalType": "string",
          "name": "message",
          "type": "string"
        }
      ],
      "name": "add",
      "outputs": [],
      "stateMutability": "nonpayable",
      "type": "function"
    },
    {
      "inputs": [],
      "name": "length",
      "outputs": [
        {
          "internalType": "uint256",
          "name": "",
          "type": "uint256"
        }
      ],
      "stateMutability": "view",
      "type": "function"
    },
    {
      "inputs": [
        {
          "internalType": "uint256",
          "name": "index",
          "type": "uint256"
        }
      ],
      "name": "get",
      "outputs": [
        {
          "internalType": "string",
          "name": "",
          "type": "string"
        }
      ],
      "stateMutability": "view",
      "type": "function"
    }
  ],
  "bytecode": "0x608060405234801561001057600080fd5b50610642806100206000396000f3fe608060405234801561001057600080fd5b506004361061005e576000357c0100000000000000000000000000000000000000000000000000000000900480631f7b6d32146100635780639507d39a14610081578063b0c8f9dc146100b1575b600080fd5b61006b6100cd565b60405161007891906102bb565b60405180910390f35b61009b60048036038101906100969190610316565b6100d9565b6040516100a891906103dc565b60405180910390f35b6100cb60048036038101906100c69190610533565b610189565b005b60008080549050905090565b6060600082815481106100ef576100ee61057c565b5b906000526020600020018054610104906105da565b80601f0160208091040260200160405190810160405280929190818152602001828054610130906105da565b801561017d5780601f106101525761010080835404028352916020019161017d565b820191906000526020600020905b81548152906001019060200180831161016057829003601f168201915b50505050509050919050565b6000819080600181540180825580915050600190039060005260206000200160009091909190915090805190602001906101c49291906101ff565b507f4e4e696dc32c0d00c4e145c98342ddf51c52c5690d40c69aacd8bbe8f52b95f3816040516101f491906103dc565b60405180910390a150565b82805461020b906105da565b90600052602060002090601f01602090048101928261022d5760008555610274565b82601f1061024657805160ff1916838001178555610274565b82800160010185558215610274579182015b82811115610273578251825591602001919060010190610258565b5b5090506102819190610285565b5090565b5b8082111561029e576000816000905550600101610286565b5090565b6000819050919050565b6102b5816102a2565b82525050565b60006020820190506102d060008301846102ac565b92915050565b6000604051905090565b600080fd5b600080fd5b6102f3816102a2565b81146102fe57600080fd5b50565b600081359050610310816102ea565b92915050565b60006020828403121561032c5761032b6102e0565b5b600061033a84828501610301565b91505092915050565b600081519050919050565b600082825260208201905092915050565b60005b8381101561037d578082015181840152602081019050610362565b8381111561038c576000848401525b50505050565b6000601f19601f8301169050919050565b60006103ae82610343565b6103b8818561034e565b93506103c881856020860161035f565b6103d181610392565b840191505092915050565b600060208201905081810360008301526103f681846103a3565b905092915050565b600080fd5b600080fd5b7f4e487b7100000000000000000000000000000000000000000000000000000000600052604160045260246000fd5b61044082610392565b810181811067ffffffffffffffff8211171561045f5761045e610408565b5b80604052505050565b60006104726102d6565b905061047e8282610437565b919050565b600067ffffffffffffffff82111561049e5761049d610408565b5b6104a782610392565b9050602081019050919050565b82818337600083830152505050565b60006104d66104d184610483565b610468565b9050828152602081018484840111156104f2576104f1610403565b5b6104fd8482856104b4565b509392505050565b600082601f83011261051a576105196103fe565b5b813561052a8482602086016104c3565b91505092915050565b600060208284031215610549576105486102e0565b5b600082013567ffffffffffffffff811115610567576105666102e5565b5b61057384828501610505565b91505092915050565b7f4e487b7100000000000000000000000000000000000000000000000000000000600052603260045260246000fd5b7f4e487b7100000000000000000000000000000000000000000000000000000000600052602260045260246000fd5b600060028204905060018216806105f257607f821691505b60208210811415610606576106056105ab565b5b5091905056fea2646970667358221220b7dd6be16a9dca2216e30cf4e70ca45911170980127ce655e14aa194d392c4ad64736f6c634300080b0033",
  "immutableReferences": {},
  "source": "pragma solidity ^0.8.2;\n\n\ncontract AuditLog {\n    string[] private events;\n\n    constructor() {}\n\n    event NewLog(string message);\n\n    function add(string memory message) public {\n        events.push(message);\n        emit NewLog(message);\n    }\n\n    function length() public view returns (uint)   {\n        return events.length;\n    }\n\n    function get(uint index) public view returns (string memory)   {\n        return events[index];\n    }\n}\n",
  "sourcePath": "/Users/artemgorev/Projects/okj/TokyoCapital/blockchain/contracts/AuditLog.sol",
  "compiler": {
    "name": "solc",
    "version": "0.8.11+commit.d7f03943.Emscripten.clang"
  },
  "schemaVersion": "3.4.3",
  "updatedAt": "2022-04-13T08:11:14.273Z",
  "devdoc": {
    "kind": "dev",
    "methods": {},
    "version": 1
  },
  "userdoc": {
    "kind": "user",
    "methods": {},
    "version": 1
  }
}