{
  "contractName": "TokyoCapitalToken",
  "abi": [
    {
      "inputs": [
        {
          "internalType": "string",
          "name": "name",
          "type": "string"
        },
        {
          "internalType": "string",
          "name": "symbol",
          "type": "string"
        },
        {
          "internalType": "uint256",
          "name": "originalAmount",
          "type": "uint256"
        }
      ],
      "stateMutability": "nonpayable",
      "type": "constructor"
    },
    {
      "anonymous": false,
      "inputs": [
        {
          "indexed": true,
          "internalType": "address",
          "name": "owner",
          "type": "address"
        },
        {
          "indexed": true,
          "internalType": "address",
          "name": "spender",
          "type": "address"
        },
        {
          "indexed": false,
          "internalType": "uint256",
          "name": "value",
          "type": "uint256"
        }
      ],
      "name": "Approval",
      "type": "event"
    },
    {
      "anonymous": false,
      "inputs": [
        {
          "indexed": true,
          "internalType": "address",
          "name": "previousOwner",
          "type": "address"
        },
        {
          "indexed": true,
          "internalType": "address",
          "name": "newOwner",
          "type": "address"
        }
      ],
      "name": "OwnershipTransferred",
      "type": "event"
    },
    {
      "anonymous": false,
      "inputs": [
        {
          "indexed": true,
          "internalType": "address",
          "name": "from",
          "type": "address"
        },
        {
          "indexed": true,
          "internalType": "address",
          "name": "to",
          "type": "address"
        },
        {
          "indexed": false,
          "internalType": "uint256",
          "name": "value",
          "type": "uint256"
        }
      ],
      "name": "Transfer",
      "type": "event"
    },
    {
      "inputs": [
        {
          "internalType": "address",
          "name": "owner",
          "type": "address"
        },
        {
          "internalType": "address",
          "name": "spender",
          "type": "address"
        }
      ],
      "name": "allowance",
      "outputs": [
        {
          "internalType": "uint256",
          "name": "",
          "type": "uint256"
        }
      ],
      "stateMutability": "view",
      "type": "function"
    },
    {
      "inputs": [
        {
          "internalType": "address",
          "name": "spender",
          "type": "address"
        },
        {
          "internalType": "uint256",
          "name": "amount",
          "type": "uint256"
        }
      ],
      "name": "approve",
      "outputs": [
        {
          "internalType": "bool",
          "name": "",
          "type": "bool"
        }
      ],
      "stateMutability": "nonpayable",
      "type": "function"
    },
    {
      "inputs": [
        {
          "internalType": "address",
          "name": "account",
          "type": "address"
        }
      ],
      "name": "balanceOf",
      "outputs": [
        {
          "internalType": "uint256",
          "name": "",
          "type": "uint256"
        }
      ],
      "stateMutability": "view",
      "type": "function"
    },
    {
      "inputs": [],
      "name": "decimals",
      "outputs": [
        {
          "internalType": "uint8",
          "name": "",
          "type": "uint8"
        }
      ],
      "stateMutability": "view",
      "type": "function"
    },
    {
      "inputs": [
        {
          "internalType": "address",
          "name": "spender",
          "type": "address"
        },
        {
          "internalType": "uint256",
          "name": "subtractedValue",
          "type": "uint256"
        }
      ],
      "name": "decreaseAllowance",
      "outputs": [
        {
          "internalType": "bool",
          "name": "",
          "type": "bool"
        }
      ],
      "stateMutability": "nonpayable",
      "type": "function"
    },
    {
      "inputs": [
        {
          "internalType": "address",
          "name": "spender",
          "type": "address"
        },
        {
          "internalType": "uint256",
          "name": "addedValue",
          "type": "uint256"
        }
      ],
      "name": "increaseAllowance",
      "outputs": [
        {
          "internalType": "bool",
          "name": "",
          "type": "bool"
        }
      ],
      "stateMutability": "nonpayable",
      "type": "function"
    },
    {
      "inputs": [],
      "name": "name",
      "outputs": [
        {
          "internalType": "string",
          "name": "",
          "type": "string"
        }
      ],
      "stateMutability": "view",
      "type": "function"
    },
    {
      "inputs": [],
      "name": "owner",
      "outputs": [
        {
          "internalType": "address",
          "name": "",
          "type": "address"
        }
      ],
      "stateMutability": "view",
      "type": "function"
    },
    {
      "inputs": [],
      "name": "renounceOwnership",
      "outputs": [],
      "stateMutability": "nonpayable",
      "type": "function"
    },
    {
      "inputs": [],
      "name": "symbol",
      "outputs": [
        {
          "internalType": "string",
          "name": "",
          "type": "string"
        }
      ],
      "stateMutability": "view",
      "type": "function"
    },
    {
      "inputs": [],
      "name": "totalSupply",
      "outputs": [
        {
          "internalType": "uint256",
          "name": "",
          "type": "uint256"
        }
      ],
      "stateMutability": "view",
      "type": "function"
    },
    {
      "inputs": [
        {
          "internalType": "address",
          "name": "recipient",
          "type": "address"
        },
        {
          "internalType": "uint256",
          "name": "amount",
          "type": "uint256"
        }
      ],
      "name": "transfer",
      "outputs": [
        {
          "internalType": "bool",
          "name": "",
          "type": "bool"
        }
      ],
      "stateMutability": "nonpayable",
      "type": "function"
    },
    {
      "inputs": [
        {
          "internalType": "address",
          "name": "sender",
          "type": "address"
        },
        {
          "internalType": "address",
          "name": "recipient",
          "type": "address"
        },
        {
          "internalType": "uint256",
          "name": "amount",
          "type": "uint256"
        }
      ],
      "name": "transferFrom",
      "outputs": [
        {
          "internalType": "bool",
          "name": "",
          "type": "bool"
        }
      ],
      "stateMutability": "nonpayable",
      "type": "function"
    },
    {
      "inputs": [
        {
          "internalType": "address",
          "name": "newOwner",
          "type": "address"
        }
      ],
      "name": "transferOwnership",
      "outputs": [],
      "stateMutability": "nonpayable",
      "type": "function"
    },
    {
      "inputs": [
        {
          "internalType": "uint256",
          "name": "amount",
          "type": "uint256"
        }
      ],
      "name": "burn",
      "outputs": [],
      "stateMutability": "nonpayable",
      "type": "function"
    }
  ],
  "bytecode": "0x60806040523480156200001157600080fd5b50604051620023ea380380620023ea8339818101604052810190620000379190620005ae565b828281600390805190602001906200005192919062000326565b5080600490805190602001906200006a92919062000326565b5050506200009f6200008a620000c3640100000000026401000000009004565b620000cb640100000000026401000000009004565b620000ba338262000191640100000000026401000000009004565b505050620007ea565b600033905090565b6000600560009054906101000a900473ffffffffffffffffffffffffffffffffffffffff16905081600560006101000a81548173ffffffffffffffffffffffffffffffffffffffff021916908373ffffffffffffffffffffffffffffffffffffffff1602179055508173ffffffffffffffffffffffffffffffffffffffff168173ffffffffffffffffffffffffffffffffffffffff167f8be0079c531659141344cd1fd0a4f28419497f9722a3daafe3b4186f6b6457e060405160405180910390a35050565b600073ffffffffffffffffffffffffffffffffffffffff168273ffffffffffffffffffffffffffffffffffffffff16141562000204576040517f08c379a0000000000000000000000000000000000000000000000000000000008152600401620001fb90620006a9565b60405180910390fd5b62000221600083836200031c640100000000026401000000009004565b8060026000828254620002359190620006fa565b92505081905550806000808473ffffffffffffffffffffffffffffffffffffffff1673ffffffffffffffffffffffffffffffffffffffff16815260200190815260200160002060008282546200028c9190620006fa565b925050819055508173ffffffffffffffffffffffffffffffffffffffff16600073ffffffffffffffffffffffffffffffffffffffff167fddf252ad1be2c89b69c2b068fc378daa952ba7f163c4a11628f55a4df523b3ef83604051620002f3919062000768565b60405180910390a3620003186000838362000321640100000000026401000000009004565b5050565b505050565b505050565b8280546200033490620007b4565b90600052602060002090601f016020900481019282620003585760008555620003a4565b82601f106200037357805160ff1916838001178555620003a4565b82800160010185558215620003a4579182015b82811115620003a357825182559160200191906001019062000386565b5b509050620003b39190620003b7565b5090565b5b80821115620003d2576000816000905550600101620003b8565b5090565b6000604051905090565b600080fd5b600080fd5b600080fd5b600080fd5b6000601f19601f8301169050919050565b7f4e487b7100000000000000000000000000000000000000000000000000000000600052604160045260246000fd5b6200043f82620003f4565b810181811067ffffffffffffffff8211171562000461576200046062000405565b5b80604052505050565b600062000476620003d6565b905062000484828262000434565b919050565b600067ffffffffffffffff821115620004a757620004a662000405565b5b620004b282620003f4565b9050602081019050919050565b60005b83811015620004df578082015181840152602081019050620004c2565b83811115620004ef576000848401525b50505050565b60006200050c620005068462000489565b6200046a565b9050828152602081018484840111156200052b576200052a620003ef565b5b62000538848285620004bf565b509392505050565b600082601f830112620005585762000557620003ea565b5b81516200056a848260208601620004f5565b91505092915050565b6000819050919050565b620005888162000573565b81146200059457600080fd5b50565b600081519050620005a8816200057d565b92915050565b600080600060608486031215620005ca57620005c9620003e0565b5b600084015167ffffffffffffffff811115620005eb57620005ea620003e5565b5b620005f98682870162000540565b935050602084015167ffffffffffffffff8111156200061d576200061c620003e5565b5b6200062b8682870162000540565b92505060406200063e8682870162000597565b9150509250925092565b600082825260208201905092915050565b7f45524332303a206d696e7420746f20746865207a65726f206164647265737300600082015250565b600062000691601f8362000648565b91506200069e8262000659565b602082019050919050565b60006020820190508181036000830152620006c48162000682565b9050919050565b7f4e487b7100000000000000000000000000000000000000000000000000000000600052601160045260246000fd5b6000620007078262000573565b9150620007148362000573565b9250827fffffffffffffffffffffffffffffffffffffffffffffffffffffffffffffffff038211156200074c576200074b620006cb565b5b828201905092915050565b620007628162000573565b82525050565b60006020820190506200077f600083018462000757565b92915050565b7f4e487b7100000000000000000000000000000000000000000000000000000000600052602260045260246000fd5b60006002820490506001821680620007cd57607f821691505b60208210811415620007e457620007e362000785565b5b50919050565b611bf080620007fa6000396000f3fe608060405234801561001057600080fd5b5060043610610112576000357c01000000000000000000000000000000000000000000000000000000009004806370a08231116100b4578063a457c2d711610083578063a457c2d714610293578063a9059cbb146102c3578063dd62ed3e146102f3578063f2fde38b1461032357610112565b806370a082311461021d578063715018a61461024d5780638da5cb5b1461025757806395d89b411461027557610112565b806323b872dd116100f057806323b872dd14610183578063313ce567146101b357806339509351146101d157806342966c681461020157610112565b806306fdde0314610117578063095ea7b31461013557806318160ddd14610165575b600080fd5b61011f61033f565b60405161012c91906111d7565b60405180910390f35b61014f600480360381019061014a9190611292565b6103d1565b60405161015c91906112ed565b60405180910390f35b61016d6103ef565b60405161017a9190611317565b60405180910390f35b61019d60048036038101906101989190611332565b6103f9565b6040516101aa91906112ed565b60405180910390f35b6101bb6104f1565b6040516101c891906113a1565b60405180910390f35b6101eb60048036038101906101e69190611292565b6104fa565b6040516101f891906112ed565b60405180910390f35b61021b600480360381019061021691906113bc565b6105a6565b005b610237600480360381019061023291906113e9565b61062f565b6040516102449190611317565b60405180910390f35b610255610677565b005b61025f6106ff565b60405161026c9190611425565b60405180910390f35b61027d610729565b60405161028a91906111d7565b60405180910390f35b6102ad60048036038101906102a89190611292565b6107bb565b6040516102ba91906112ed565b60405180910390f35b6102dd60048036038101906102d89190611292565b6108a6565b6040516102ea91906112ed565b60405180910390f35b61030d60048036038101906103089190611440565b6108c4565b60405161031a9190611317565b60405180910390f35b61033d600480360381019061033891906113e9565b61094b565b005b60606003805461034e906114af565b80601f016020809104026020016040519081016040528092919081815260200182805461037a906114af565b80156103c75780601f1061039c576101008083540402835291602001916103c7565b820191906000526020600020905b8154815290600101906020018083116103aa57829003601f168201915b5050505050905090565b60006103e56103de610a43565b8484610a4b565b6001905092915050565b6000600254905090565b6000610406848484610c16565b6000600160008673ffffffffffffffffffffffffffffffffffffffff1673ffffffffffffffffffffffffffffffffffffffff1681526020019081526020016000206000610451610a43565b73ffffffffffffffffffffffffffffffffffffffff1673ffffffffffffffffffffffffffffffffffffffff168152602001908152602001600020549050828110156104d1576040517f08c379a00000000000000000000000000000000000000000000000000000000081526004016104c890611553565b60405180910390fd5b6104e5856104dd610a43565b858403610a4b565b60019150509392505050565b60006012905090565b600061059c610507610a43565b848460016000610515610a43565b73ffffffffffffffffffffffffffffffffffffffff1673ffffffffffffffffffffffffffffffffffffffff16815260200190815260200160002060008873ffffffffffffffffffffffffffffffffffffffff1673ffffffffffffffffffffffffffffffffffffffff1681526020019081526020016000205461059791906115a2565b610a4b565b6001905092915050565b6105ae610a43565b73ffffffffffffffffffffffffffffffffffffffff166105cc6106ff565b73ffffffffffffffffffffffffffffffffffffffff1614610622576040517f08c379a000000000000000000000000000000000000000000000000000000000815260040161061990611644565b60405180910390fd5b61062c3382610e97565b50565b60008060008373ffffffffffffffffffffffffffffffffffffffff1673ffffffffffffffffffffffffffffffffffffffff168152602001908152602001600020549050919050565b61067f610a43565b73ffffffffffffffffffffffffffffffffffffffff1661069d6106ff565b73ffffffffffffffffffffffffffffffffffffffff16146106f3576040517f08c379a00000000000000000000000000000000000000000000000000000000081526004016106ea90611644565b60405180910390fd5b6106fd600061106e565b565b6000600560009054906101000a900473ffffffffffffffffffffffffffffffffffffffff16905090565b606060048054610738906114af565b80601f0160208091040260200160405190810160405280929190818152602001828054610764906114af565b80156107b15780601f10610786576101008083540402835291602001916107b1565b820191906000526020600020905b81548152906001019060200180831161079457829003601f168201915b5050505050905090565b600080600160006107ca610a43565b73ffffffffffffffffffffffffffffffffffffffff1673ffffffffffffffffffffffffffffffffffffffff16815260200190815260200160002060008573ffffffffffffffffffffffffffffffffffffffff1673ffffffffffffffffffffffffffffffffffffffff16815260200190815260200160002054905082811015610887576040517f08c379a000000000000000000000000000000000000000000000000000000000815260040161087e906116d6565b60405180910390fd5b61089b610892610a43565b85858403610a4b565b600191505092915050565b60006108ba6108b3610a43565b8484610c16565b6001905092915050565b6000600160008473ffffffffffffffffffffffffffffffffffffffff1673ffffffffffffffffffffffffffffffffffffffff16815260200190815260200160002060008373ffffffffffffffffffffffffffffffffffffffff1673ffffffffffffffffffffffffffffffffffffffff16815260200190815260200160002054905092915050565b610953610a43565b73ffffffffffffffffffffffffffffffffffffffff166109716106ff565b73ffffffffffffffffffffffffffffffffffffffff16146109c7576040517f08c379a00000000000000000000000000000000000000000000000000000000081526004016109be90611644565b60405180910390fd5b600073ffffffffffffffffffffffffffffffffffffffff168173ffffffffffffffffffffffffffffffffffffffff161415610a37576040517f08c379a0000000000000000000000000000000000000000000000000000000008152600401610a2e90611768565b60405180910390fd5b610a408161106e565b50565b600033905090565b600073ffffffffffffffffffffffffffffffffffffffff168373ffffffffffffffffffffffffffffffffffffffff161415610abb576040517f08c379a0000000000000000000000000000000000000000000000000000000008152600401610ab2906117fa565b60405180910390fd5b600073ffffffffffffffffffffffffffffffffffffffff168273ffffffffffffffffffffffffffffffffffffffff161415610b2b576040517f08c379a0000000000000000000000000000000000000000000000000000000008152600401610b229061188c565b60405180910390fd5b80600160008573ffffffffffffffffffffffffffffffffffffffff1673ffffffffffffffffffffffffffffffffffffffff16815260200190815260200160002060008473ffffffffffffffffffffffffffffffffffffffff1673ffffffffffffffffffffffffffffffffffffffff168152602001908152602001600020819055508173ffffffffffffffffffffffffffffffffffffffff168373ffffffffffffffffffffffffffffffffffffffff167f8c5be1e5ebec7d5bd14f71427d1e84f3dd0314c0f7b2291e5b200ac8c7c3b92583604051610c099190611317565b60405180910390a3505050565b600073ffffffffffffffffffffffffffffffffffffffff168373ffffffffffffffffffffffffffffffffffffffff161415610c86576040517f08c379a0000000000000000000000000000000000000000000000000000000008152600401610c7d9061191e565b60405180910390fd5b600073ffffffffffffffffffffffffffffffffffffffff168273ffffffffffffffffffffffffffffffffffffffff161415610cf6576040517f08c379a0000000000000000000000000000000000000000000000000000000008152600401610ced906119b0565b60405180910390fd5b610d01838383611134565b60008060008573ffffffffffffffffffffffffffffffffffffffff1673ffffffffffffffffffffffffffffffffffffffff16815260200190815260200160002054905081811015610d87576040517f08c379a0000000000000000000000000000000000000000000000000000000008152600401610d7e90611a42565b60405180910390fd5b8181036000808673ffffffffffffffffffffffffffffffffffffffff1673ffffffffffffffffffffffffffffffffffffffff16815260200190815260200160002081905550816000808573ffffffffffffffffffffffffffffffffffffffff1673ffffffffffffffffffffffffffffffffffffffff1681526020019081526020016000206000828254610e1a91906115a2565b925050819055508273ffffffffffffffffffffffffffffffffffffffff168473ffffffffffffffffffffffffffffffffffffffff167fddf252ad1be2c89b69c2b068fc378daa952ba7f163c4a11628f55a4df523b3ef84604051610e7e9190611317565b60405180910390a3610e91848484611139565b50505050565b600073ffffffffffffffffffffffffffffffffffffffff168273ffffffffffffffffffffffffffffffffffffffff161415610f07576040517f08c379a0000000000000000000000000000000000000000000000000000000008152600401610efe90611ad4565b60405180910390fd5b610f1382600083611134565b60008060008473ffffffffffffffffffffffffffffffffffffffff1673ffffffffffffffffffffffffffffffffffffffff16815260200190815260200160002054905081811015610f99576040517f08c379a0000000000000000000000000000000000000000000000000000000008152600401610f9090611b66565b60405180910390fd5b8181036000808573ffffffffffffffffffffffffffffffffffffffff1673ffffffffffffffffffffffffffffffffffffffff168152602001908152602001600020819055508160026000828254610ff09190611b86565b92505081905550600073ffffffffffffffffffffffffffffffffffffffff168373ffffffffffffffffffffffffffffffffffffffff167fddf252ad1be2c89b69c2b068fc378daa952ba7f163c4a11628f55a4df523b3ef846040516110559190611317565b60405180910390a361106983600084611139565b505050565b6000600560009054906101000a900473ffffffffffffffffffffffffffffffffffffffff16905081600560006101000a81548173ffffffffffffffffffffffffffffffffffffffff021916908373ffffffffffffffffffffffffffffffffffffffff1602179055508173ffffffffffffffffffffffffffffffffffffffff168173ffffffffffffffffffffffffffffffffffffffff167f8be0079c531659141344cd1fd0a4f28419497f9722a3daafe3b4186f6b6457e060405160405180910390a35050565b505050565b505050565b600081519050919050565b600082825260208201905092915050565b60005b8381101561117857808201518184015260208101905061115d565b83811115611187576000848401525b50505050565b6000601f19601f8301169050919050565b60006111a98261113e565b6111b38185611149565b93506111c381856020860161115a565b6111cc8161118d565b840191505092915050565b600060208201905081810360008301526111f1818461119e565b905092915050565b600080fd5b600073ffffffffffffffffffffffffffffffffffffffff82169050919050565b6000611229826111fe565b9050919050565b6112398161121e565b811461124457600080fd5b50565b60008135905061125681611230565b92915050565b6000819050919050565b61126f8161125c565b811461127a57600080fd5b50565b60008135905061128c81611266565b92915050565b600080604083850312156112a9576112a86111f9565b5b60006112b785828601611247565b92505060206112c88582860161127d565b9150509250929050565b60008115159050919050565b6112e7816112d2565b82525050565b600060208201905061130260008301846112de565b92915050565b6113118161125c565b82525050565b600060208201905061132c6000830184611308565b92915050565b60008060006060848603121561134b5761134a6111f9565b5b600061135986828701611247565b935050602061136a86828701611247565b925050604061137b8682870161127d565b9150509250925092565b600060ff82169050919050565b61139b81611385565b82525050565b60006020820190506113b66000830184611392565b92915050565b6000602082840312156113d2576113d16111f9565b5b60006113e08482850161127d565b91505092915050565b6000602082840312156113ff576113fe6111f9565b5b600061140d84828501611247565b91505092915050565b61141f8161121e565b82525050565b600060208201905061143a6000830184611416565b92915050565b60008060408385031215611457576114566111f9565b5b600061146585828601611247565b925050602061147685828601611247565b9150509250929050565b7f4e487b7100000000000000000000000000000000000000000000000000000000600052602260045260246000fd5b600060028204905060018216806114c757607f821691505b602082108114156114db576114da611480565b5b50919050565b7f45524332303a207472616e7366657220616d6f756e742065786365656473206160008201527f6c6c6f77616e6365000000000000000000000000000000000000000000000000602082015250565b600061153d602883611149565b9150611548826114e1565b604082019050919050565b6000602082019050818103600083015261156c81611530565b9050919050565b7f4e487b7100000000000000000000000000000000000000000000000000000000600052601160045260246000fd5b60006115ad8261125c565b91506115b88361125c565b9250827fffffffffffffffffffffffffffffffffffffffffffffffffffffffffffffffff038211156115ed576115ec611573565b5b828201905092915050565b7f4f776e61626c653a2063616c6c6572206973206e6f7420746865206f776e6572600082015250565b600061162e602083611149565b9150611639826115f8565b602082019050919050565b6000602082019050818103600083015261165d81611621565b9050919050565b7f45524332303a2064656372656173656420616c6c6f77616e63652062656c6f7760008201527f207a65726f000000000000000000000000000000000000000000000000000000602082015250565b60006116c0602583611149565b91506116cb82611664565b604082019050919050565b600060208201905081810360008301526116ef816116b3565b9050919050565b7f4f776e61626c653a206e6577206f776e657220697320746865207a65726f206160008201527f6464726573730000000000000000000000000000000000000000000000000000602082015250565b6000611752602683611149565b915061175d826116f6565b604082019050919050565b6000602082019050818103600083015261178181611745565b9050919050565b7f45524332303a20617070726f76652066726f6d20746865207a65726f2061646460008201527f7265737300000000000000000000000000000000000000000000000000000000602082015250565b60006117e4602483611149565b91506117ef82611788565b604082019050919050565b60006020820190508181036000830152611813816117d7565b9050919050565b7f45524332303a20617070726f766520746f20746865207a65726f20616464726560008201527f7373000000000000000000000000000000000000000000000000000000000000602082015250565b6000611876602283611149565b91506118818261181a565b604082019050919050565b600060208201905081810360008301526118a581611869565b9050919050565b7f45524332303a207472616e736665722066726f6d20746865207a65726f20616460008201527f6472657373000000000000000000000000000000000000000000000000000000602082015250565b6000611908602583611149565b9150611913826118ac565b604082019050919050565b60006020820190508181036000830152611937816118fb565b9050919050565b7f45524332303a207472616e7366657220746f20746865207a65726f206164647260008201527f6573730000000000000000000000000000000000000000000000000000000000602082015250565b600061199a602383611149565b91506119a58261193e565b604082019050919050565b600060208201905081810360008301526119c98161198d565b9050919050565b7f45524332303a207472616e7366657220616d6f756e742065786365656473206260008201527f616c616e63650000000000000000000000000000000000000000000000000000602082015250565b6000611a2c602683611149565b9150611a37826119d0565b604082019050919050565b60006020820190508181036000830152611a5b81611a1f565b9050919050565b7f45524332303a206275726e2066726f6d20746865207a65726f2061646472657360008201527f7300000000000000000000000000000000000000000000000000000000000000602082015250565b6000611abe602183611149565b9150611ac982611a62565b604082019050919050565b60006020820190508181036000830152611aed81611ab1565b9050919050565b7f45524332303a206275726e20616d6f756e7420657863656564732062616c616e60008201527f6365000000000000000000000000000000000000000000000000000000000000602082015250565b6000611b50602283611149565b9150611b5b82611af4565b604082019050919050565b60006020820190508181036000830152611b7f81611b43565b9050919050565b6000611b918261125c565b9150611b9c8361125c565b925082821015611baf57611bae611573565b5b82820390509291505056fea26469706673582212208a5e92668168cb08b72aa66aca1e8e851a4c6eecd79d53d2263b89f7452dd8fd64736f6c634300080b0033",
  "immutableReferences": {},
  "source": "pragma solidity ^0.8.2;\n\nimport \"@openzeppelin/contracts/token/ERC20/ERC20.sol\";\nimport \"@openzeppelin/contracts/access/Ownable.sol\";\n\ncontract TokyoCapitalToken is ERC20, Ownable {\n    constructor(string memory name, string memory symbol, uint256 originalAmount) ERC20(name, symbol) {\n        _mint(msg.sender, originalAmount);\n    }\n\n    function burn(uint256 amount) public onlyOwner {\n        _burn(msg.sender, amount);\n    }\n}\n",
  "sourcePath": "/Users/artemgorev/Projects/okj/TokyoCapital/blockchain/contracts/TCXToken.sol",
  "compiler": {
    "name": "solc",
    "version": "0.8.11+commit.d7f03943.Emscripten.clang"
  },
  "schemaVersion": "3.4.3",
  "updatedAt": "2022-04-17T17:44:03.172Z",
  "devdoc": {
    "kind": "dev",
    "methods": {
      "allowance(address,address)": {
        "details": "See {IERC20-allowance}."
      },
      "approve(address,uint256)": {
        "details": "See {IERC20-approve}. Requirements: - `spender` cannot be the zero address."
      },
      "balanceOf(address)": {
        "details": "See {IERC20-balanceOf}."
      },
      "decimals()": {
        "details": "Returns the number of decimals used to get its user representation. For example, if `decimals` equals `2`, a balance of `505` tokens should be displayed to a user as `5.05` (`505 / 10 ** 2`). Tokens usually opt for a value of 18, imitating the relationship between Ether and Wei. This is the value {ERC20} uses, unless this function is overridden; NOTE: This information is only used for _display_ purposes: it in no way affects any of the arithmetic of the contract, including {IERC20-balanceOf} and {IERC20-transfer}."
      },
      "decreaseAllowance(address,uint256)": {
        "details": "Atomically decreases the allowance granted to `spender` by the caller. This is an alternative to {approve} that can be used as a mitigation for problems described in {IERC20-approve}. Emits an {Approval} event indicating the updated allowance. Requirements: - `spender` cannot be the zero address. - `spender` must have allowance for the caller of at least `subtractedValue`."
      },
      "increaseAllowance(address,uint256)": {
        "details": "Atomically increases the allowance granted to `spender` by the caller. This is an alternative to {approve} that can be used as a mitigation for problems described in {IERC20-approve}. Emits an {Approval} event indicating the updated allowance. Requirements: - `spender` cannot be the zero address."
      },
      "name()": {
        "details": "Returns the name of the token."
      },
      "owner()": {
        "details": "Returns the address of the current owner."
      },
      "renounceOwnership()": {
        "details": "Leaves the contract without owner. It will not be possible to call `onlyOwner` functions anymore. Can only be called by the current owner. NOTE: Renouncing ownership will leave the contract without an owner, thereby removing any functionality that is only available to the owner."
      },
      "symbol()": {
        "details": "Returns the symbol of the token, usually a shorter version of the name."
      },
      "totalSupply()": {
        "details": "See {IERC20-totalSupply}."
      },
      "transfer(address,uint256)": {
        "details": "See {IERC20-transfer}. Requirements: - `recipient` cannot be the zero address. - the caller must have a balance of at least `amount`."
      },
      "transferFrom(address,address,uint256)": {
        "details": "See {IERC20-transferFrom}. Emits an {Approval} event indicating the updated allowance. This is not required by the EIP. See the note at the beginning of {ERC20}. Requirements: - `sender` and `recipient` cannot be the zero address. - `sender` must have a balance of at least `amount`. - the caller must have allowance for ``sender``'s tokens of at least `amount`."
      },
      "transferOwnership(address)": {
        "details": "Transfers ownership of the contract to a new account (`newOwner`). Can only be called by the current owner."
      }
    },
    "version": 1
  },
  "userdoc": {
    "kind": "user",
    "methods": {},
    "version": 1
  }
}